:100000000C9472000C9493000C9493000C94930045
:100010000C9493000C94BE120C94A1120C949300B7
:100020000C9493000C9493000C9493000C94930004
:100030000C9493000C9493000C9493000C949300F4
:100040000C9493000C9493000C9493000C949300E4
:100050000C9493000C9493000C9493000C949300D4
:100060000C9493000C9442010C9493000C94930014
:100070000C9493000C9493000C9493000C949300B4
:100080000C9493000C9493000C9493000C949300A4
:100090000C9493000C9493000C9493000C94930094
:1000A0000C9493000C9493000C9493000C94930084
:1000B0000C9493000C9493000C9493000C94930074
:1000C0000C9493000C9493000C9493000C947D0575
:1000D0000C9493000C94F8050C9493000C949300EA
:1000E0000C94930011241FBECFEFD1E2DEBFCDBF31
:1000F00000E00CBF13E0A0E0B2E0EEE7FBE300E0BD
:100100000BBF02C007900D92AE3DB107D9F715E0C5
:10011000AEEDB3E001C01D92AA34B107E1F70E9431
:1001200006020C94BD1D0C940000DF93CF93CDB755
:10013000DEB70E9461050E941A100E947B0B0E948C
:1001400050110E943D110E94F0120E941C13CF9189
:10015000DF910895DF93CF93CDB7DEB7E1ECF0E008
:100160001082E0ECF0E01082E2ECF0E086E08083C8
:10017000E4ECF0E08FE58083E5ECF0E01082E1EC68
:10018000F0E088E98083CF91DF910895DF93CF93EA
:1001900000D00F92CDB7DEB79C838B83E6ECF0E006
:1001A00088E280831A82198219C0E0ECF0E0808135
:1001B000882F90E0807290700097B9F3A6ECB0E0C1
:1001C00029813A818B819C81FC01E20FF31F8081A0
:1001D0008C9389819A8101969A83898329813A81B6
:1001E0008B819C81FC01E20FF31F80818823E9F65B
:1001F000E0ECF0E08081882F90E0807290700097B2
:10020000B9F3E6ECF0E089E280830F900F900F9055
:100210000F90CF91DF910895DF93CF93CDB7DEB7E5
:1002200028970FB6F894DEBF0FBECDBF8BEC94E0DD
:100230000E944C1D98878F8380ED94E00E944C1D96
:100240009C838B8385ED94E00E944C1D9A83898367
:100250008F8198858130910541F48B819C81298122
:100260003A81B9010E94130204C0E6ECF0E086E294
:10027000808328960FB6F894DEBF0FBECDBFCF9116
:10028000DF9108951F920F920FB60F9200905B00BE
:100290000F9211242F933F934F935F936F937F930C
:1002A0008F939F93AF93BF93EF93FF93DF93CF937E
:1002B000CDB7DEB7F894E6ECF0E080818093C3041C
:1002C0008091C3048332C9F586EC94E00E944C1DF2
:1002D0009C018091BF049091C0042817390721F533
:1002E0008091E0039091E1030097C9F02091DE0333
:1002F0003091DF034091E0035091E103C901880F81
:10030000991F880F991F820F931F840F951FFC015F
:10031000EA53FB4F108278940E940C01F894E6ECAB
:10032000F0E08091C30480831092DF031092DE031B
:100330001092E1031092E00347C08091C30484321D
:1003400019F52091DE033091DF034091E0035091D5
:10035000E103C901880F991F880F991F820F931F0E
:10036000840F951FFC01EA53FB4F10828091DE033E
:100370009091DF0301969093DF038093DE03109248
:10038000E1031092E00320C02091DE033091DF03EF
:100390004091E0035091E1036091C304C901880FCB
:1003A000991F880F991F820F931F840F951FFC01BF
:1003B000EA53FB4F60838091E0039091E103019643
:1003C0009093E1038093E0037894CF91DF91FF91C4
:1003D000EF91BF91AF919F918F917F916F915F91BD
:1003E0004F913F912F910F9000925B000F900FBEA5
:1003F0000F901F901895DF93CF93CDB7DEB7F89489
:100400000E94AA007894CF91DF910895DF93CF9353
:10041000CDB7DEB789E090E09093C0048093BF042D
:100420000E94FB01FFCFDF93CF93CDB7DEB7E697F6
:100430000FB6F894DEBF0FBECDBF98AB8FA77AABD7
:1004400069AB8FA598A99EA78DA789A99AA9C097DE
:10045000880F991F82959295907F9827807F982783
:100460009CA78BA781E090E09093BA048093B90495
:10047000F8940E949500789481E00E94130C81E02A
:1004800061E00E94EE0E80E092E00E94D10E8FEFBC
:1004900090E06FEF70E00E946D1080E090E0A8ECBB
:1004A000B2E48FA398A7A9A7BAA76FA178A589A539
:1004B0009AA52DEC3CEC4CE255E40E94F617DC01C9
:1004C000CB018BA39CA3ADA3BEA36BA17CA18DA1EB
:1004D0009EA120E030E040E85FE30E94FC19882301
:1004E0002CF481E090E09AA389A33FC06BA17CA18A
:1004F0008DA19EA120E03FEF4FE757E40E949C1999
:1005000018164CF56FA178A589A59AA520E030E0D2
:1005100040E251E40E94F617DC01CB01BC01CD01A1
:100520000E942016DC01CB019AA389A30FC084E1AD
:1005300091E098A38F8F8F8D98A10197F1F798A3E1
:100540008F8F89A19AA101979AA389A389A19AA1C2
:10055000009769F714C06BA17CA18DA19EA10E9498
:100560002016DC01CB019AA389A389A19AA19E8FB1
:100570008D8F8D8D9E8D0197F1F79E8F8D8F809140
:10058000EA03882309F089CF1092EA032091B90485
:100590003091BA043EAB2DAB8DA99EA98130910557
:1005A00009F477C12DA93EA92130310538F08DA974
:1005B0009EA98230910509F4F2C177C28091E104CD
:1005C000282F30E03CAB2BAB8BA99CA98C34910538
:1005D00009F48AC02BA93CA92D34310554F58BA907
:1005E0009CA98534910509F401C12BA93CA92634A5
:1005F00031056CF48BA99CA98133910509F429C1BB
:100600002BA93CA92234310509F459C034C18BA966
:100610009CA98734910509F4C1C02BA93CA92734B2
:100620003105C4F18BA99CA98B34910509F4A8C0AC
:1006300022C12BA93CA92535310509F493C08BA90A
:100640009CA9863591059CF42BA93CA9233531053D
:1006500009F47AC08BA99CA9843591050CF0E6C0F9
:100660002BA93CA92235310509F459C004C18BA935
:100670009CA98935910509F4ADC02BA93CA92A355F
:10068000310509F499C08BA99CA98835910509F415
:10069000BBC0F1C08BA59CA52BA53CA5B9010E94B0
:1006A0006D100E94861081E00E94130C81E061E0D1
:1006B0000E94EE0E8CE092E00E94D10EEECE8BA551
:1006C0009CA52BA53CA5B9010E946D100E94951018
:1006D00081E00E94130C81E061E00E94EE0E88E14F
:1006E00092E00E94D10ED9CE8091E204882F90E052
:1006F000C097880F991F82959295907F9827807F49
:1007000098279CA78BA781E00E94130C81E061E0F1
:100710000E94EE0E84E292E00E94D10EBECE8BA526
:100720009CA52BA53CA5B9010E946D100E94B31099
:1007300081E00E94130C81E061E00E94EE0E82E3F2
:1007400092E00E94D10EA9CE0E94C21081E00E94C8
:10075000130C81E061E00E94EE0E81E492E00E94C1
:10076000D10E9BCE0E94EE1081E00E94130C81E01E
:1007700061E00E94EE0E8AE492E00E94D10E8DCEDE
:100780000E94FD1081E00E94130C81E061E00E9454
:10079000EE0E84E592E00E94D10E7FCE0E941A11E7
:1007A00081E00E94130C81E061E00E94EE0E80E681
:1007B00092E00E94D10E71CE0E94D01081E00E9482
:1007C000130C81E061E00E94EE0E8CE692E00E9444
:1007D000D10E63CE81E00E94130C81E061E00E94A3
:1007E000EE0E86E792E00E94D10E57CE0E940C11C9
:1007F00081E00E94130C81E061E00E94EE0E8EE722
:1008000092E00E94D10E49CE82E090E09093BA042B
:100810008093B90481E00E94130C81E061E00E94A2
:10082000EE0E89E892E00E94D10E37CE8091E2046C
:10083000882F90E0C0979EA78DA781E00E94130C9F
:1008400081E061E00E94EE0E80E992E00E94D10E0C
:1008500024CE81E090E09093BA048093B90481E0C3
:100860000E94130C81E061E00E94EE0E84EA92E0A7
:100870000E94D10E12CE0E94C21081E00E94130C81
:1008800081E061E00E94EE0E80E092E00E94D10ED5
:1008900004CE8DA59EA50E9403141092BA04109256
:1008A000B90481E00E94130C81E061E00E94EE0E29
:1008B0008DEA92E00E94D10E80E090E0AAE7B4E4D5
:1008C000898F9A8FAB8FBC8F698D7A8D8B8D9C8D24
:1008D0002DEC3CEC4CE255E40E94F617DC01CB0118
:1008E0008D8B9E8BAF8BB88F6D897E898F89988D0C
:1008F00020E030E040E85FE30E94FC1988232CF4FC
:1009000081E090E09C8B8B8B3FC06D897E898F89C5
:10091000988D20E03FEF4FE757E40E949C1918168E
:100920004CF5698D7A8D8B8D9C8D20E030E040E216
:1009300051E40E94F617DC01CB01BC01CD010E94FD
:100940002016DC01CB019C8B8B8B0FC084E191E0E6
:100950009A8B898B89899A890197F1F79A8B898B70
:100960008B899C8901979C8B8B8B8B899C890097A9
:1009700069F793CD6D897E898F89988D0E942016A5
:10098000DC01CB019C8B8B8B8B899C89988B8F870F
:100990008F8598890197F1F7988B8F877ECD81E0BD
:1009A0000E94130C81E061E00E94EE0E8EEB92E05B
:1009B0000E94D10E80E090E0AAE7B4E48B879C8788
:1009C000AD87BE876B857C858D859E852DEC3CEC47
:1009D0004CE255E40E94F617DC01CB018F83988727
:1009E000A987BA876F81788589859A8520E030E06C
:1009F00040E85FE30E94FC1988232CF481E090E03A
:100A00009E838D833FC06F81788589859A8520E09C
:100A10003FEF4FE757E40E949C1918164CF56B8581
:100A20007C858D859E8520E030E040E251E40E9487
:100A3000F617DC01CB01BC01CD010E942016DC01C0
:100A4000CB019E838D830FC084E191E09C838B83D7
:100A50008B819C810197F1F79C838B838D819E8193
:100A600001979E838D838D819E81009769F714C0C5
:100A70006F81788589859A850E942016DC01CB01DB
:100A80009E838D838D819E819A83898389819A81BA
:100A90000197F1F79A8389838DA59EA50E94A815D9
:100AA0001092BA041092B904F8CC81E00E94130CA1
:100AB00081E061E00E94EE0E8EEC92E00E94D10E89
:100AC000ECCCDF93CF93CDB7DEB7E1EDF0E0108251
:100AD000E0EDF0E01082E2EDF0E086E08083E4ED0E
:100AE000F0E08FE58083E5EDF0E01082E1EDF0E0ED
:100AF00088ED8083CF91DF9108951F920F920FB6FA
:100B00000F9200905B000F9211242F933F938F93CD
:100B10009F93EF93FF93DF93CF9300D0CDB7DEB7D2
:100B2000E6EDF0E080818B838B818A3099F08091B3
:100B3000C4049091C504FC01EE5AFB4F8B81808365
:100B40008091C4049091C50401969093C50480934C
:100B5000C4043BC080915204873241F0809152041A
:100B6000833421F080915204843429F41092C50416
:100B70001092C4042AC081E08093EA031A82198289
:100B800011C029813A8189819A81FC01EE5AFB4F7B
:100B90008081F901EF51FB4F808389819A81019611
:100BA0009A83898329813A818091C4049091C504F4
:100BB0002817390730F38091C4049091C5048093BD
:100BC000B8041092C5041092C4040F900F900F90B7
:100BD000CF91DF91FF91EF919F918F913F912F9155
:100BE0000F9000925B000F900FBE0F901F90189512
:100BF0001F920F920FB60F9200905B000F9211247C
:100C00002F933F938F939F93AF93BF93EF93FF9354
:100C1000DF93CF93CDB7DEB72091BB043091BC04F6
:100C20008091C1049091C2042817390758F0A6EDAD
:100C3000B0E08091C1049091C204FC01E551FC4FE9
:100C400080818C938091C1049091C204019690930D
:100C5000C2048093C104CF91DF91FF91EF91BF91C6
:100C6000AF919F918F913F912F910F9000925B00D8
:100C70000F900FBE0F901F901895DF93CF93CDB7B5
:100C8000DEB781E48093EB0384E58093EC0382E498
:100C90008093ED038FE38093EE038DE08093EF0369
:100CA00084E090E09093BC048093BB0481E090E0EA
:100CB0009093C2048093C104E6EDF0E08091EB03D1
:100CC000808381E080934F04CF91DF9108950F934B
:100CD0001F93DF93CF93CDB7DEB7C057D0400FB689
:100CE000F894DEBF0FBECDBFFE01E359FF4F80E099
:100CF00090E0A0E8BFE380839183A283B3838E0159
:100D000007591F4FFE01E359FF4F608171818281B6
:100D100093812DEC3CEC4CE255E40E94F617DC018B
:100D2000CB01F80180839183A283B383FE01E7594D
:100D3000FF4F608171818281938120E030E040E843
:100D40005FE30E94FC19882344F4FE01E959FF4F38
:100D500081E090E09183808364C0FE01E759FF4FFA
:100D6000608171818281938120E03FEF4FE757E4FA
:100D70000E949C1918160CF043C0FE01E359FF4F66
:100D8000608171818281938120E030E040E251E412
:100D90000E94F617DC01CB018E0109591F4FBC01DF
:100DA000CD010E942016DC01CB01F80191838083E4
:100DB0001FC0FE01EB59FF4F84E191E091838083D6
:100DC000FE01EB59FF4F808191810197F1F7FE0100
:100DD000EB59FF4F91838083DE01A959BF4FFE017C
:100DE000E959FF4F80819181019711969C938E93D1
:100DF000FE01E959FF4F808191810097D1F627C00C
:100E00008E0109591F4FFE01E759FF4F6081718123
:100E1000828193810E942016DC01CB01F80191832D
:100E20008083DE01AD59BF4FFE01E959FF4F80813C
:100E300091818D939C93FE01ED59FF4F80819181AB
:100E40000197F1F7FE01ED59FF4F91838083A8E2EE
:100E5000B0E0E8E2F0E080818E7F8C93A8E2B0E021
:100E6000E8E2F0E080818D7F8C93E8E2F0E080E3BF
:100E70008083A8E2B0E0E8E2F0E0808184608C93B7
:100E8000FE01E15AFF4F80E090E0A0EAB0E48083E9
:100E90009183A283B3838E01055A1F4FFE01E15A4D
:100EA000FF4F60817181828193812DEC3CEC4CE29B
:100EB00055E40E94F617DC01CB01F8018083918391
:100EC000A283B383FE01E55AFF4F60817181828165
:100ED000938120E030E040E85FE30E94FC19882322
:100EE00044F4FE01E75AFF4F81E090E09183808354
:100EF00064C0FE01E55AFF4F608171818281938158
:100F000020E03FEF4FE757E40E949C1918160CF0C1
:100F100043C0FE01E15AFF4F60817181828193815C
:100F200020E030E040E251E40E94F617DC01CB0102
:100F30008E01075A1F4FBC01CD010E942016DC0113
:100F4000CB01F801918380831FC0FE01E95AFF4F56
:100F500084E191E091838083FE01E95AFF4F808113
:100F600091810197F1F7FE01E95AFF4F9183808348
:100F7000DE01A75ABF4FFE01E75AFF4F80819181E2
:100F8000019711969C938E93FE01E75AFF4F808143
:100F900091810097D1F627C08E01075A1F4FFE019D
:100FA000E55AFF4F60817181828193810E942016F2
:100FB000DC01CB01F80191838083DE01AB5ABF4F86
:100FC000FE01E75AFF4F808191818D939C93FE0132
:100FD000EB5AFF4F808191810197F1F7FE01EB5AA7
:100FE000FF4F91838083A8E2B0E0E8E2F0E08081E7
:100FF0008B7F8C93FE01EF5AFF4F80E090E0A0E8DA
:10100000BFE380839183A283B3838E01035B1F4F71
:10101000FE01EF5AFF4F60817181828193812DEC37
:101020003CEC4CE255E40E94F617DC01CB01F801E0
:1010300080839183A283B383FE01E35BFF4F6081D2
:1010400071818281938120E030E040E85FE30E947B
:10105000FC19882344F4FE01E55BFF4F81E090E03A
:101060009183808364C0FE01E35BFF4F60817181E7
:101070008281938120E03FEF4FE757E40E949C1963
:1010800018160CF043C0FE01EF5AFF4F60817181CA
:101090008281938120E030E040E251E40E94F61723
:1010A000DC01CB018E01055B1F4FBC01CD010E940D
:1010B0002016DC01CB01F801918380831FC0FE0163
:1010C000E75BFF4F84E191E091838083FE01E75B62
:1010D000FF4F808191810197F1F7FE01E75BFF4FA0
:1010E00091838083DE01A55BBF4FFE01E55BFF4F6F
:1010F00080819181019711969C938E93FE01E55B0F
:10110000FF4F808191810097D1F627C08E01055B4A
:101110001F4FFE01E35BFF4F6081718182819381EC
:101120000E942016DC01CB01F80191838083DE014F
:10113000A95BBF4FFE01E55BFF4F808191818D93DD
:101140009C93FE01E95BFF4F808191810197F1F74C
:10115000FE01E95BFF4F91838083A8E2B0E0E8E203
:10116000F0E080818E7F8C93A8E2B0E0E8E2F0E0CE
:1011700080818D7F8C93E8E2F0E080E38083A8E2B9
:10118000B0E0E8E2F0E0808184608C93FE01ED5BEA
:10119000FF4F80E090E0A0EAB0E480839183A283D7
:1011A000B3838E01015C1F4FFE01ED5BFF4F608139
:1011B0007181828193812DEC3CEC4CE255E40E94DC
:1011C000F617DC01CB01F80180839183A283B383FE
:1011D000FE01FF96608171818281938120E030E081
:1011E00040E85FE30E94FC1988232CF481E090E042
:1011F0009EAF8DAF46C0FE01FF96608171818281F6
:10120000938120E03FEF4FE757E40E949C191816A6
:1012100064F5FE01ED5BFF4F6081718182819381F6
:1012200020E030E040E251E40E94F617DC01CB01FF
:10123000BC01CD010E942016DC01CB019EAF8DAF19
:101240000FC084E191E09CAF8BAF8BAD9CAD01975B
:10125000F1F79CAF8BAF8DAD9EAD01979EAF8DAF7B
:101260008DAD9EAD009769F716C0FE01FF966081B7
:101270007181828193810E942016DC01CB019EAF97
:101280008DAF8DAD9EAD9AAF89AF89AD9AAD019707
:10129000F1F79AAF89AFA8E2B0E0E8E2F0E0808130
:1012A0008B7F8C9380E090E0A0E8BFE38DAB9EAB9A
:1012B000AFABB8AF6DA97EA98FA998AD2DEC3CEC72
:1012C0004CE255E40E94F617DC01CB0189AB9AABE6
:1012D000ABABBCAB69A97AA98BA99CA920E030E093
:1012E00040E85FE30E94FC1988232CF481E090E041
:1012F00098AB8FA73FC069A97AA98BA99CA920E0C8
:101300003FEF4FE757E40E949C1918164CF56DA962
:101310007EA98FA998AD20E030E040E251E40E9420
:10132000F617DC01CB01BC01CD010E942016DC01C7
:10133000CB0198AB8FA70FC084E191E09EA78DA74A
:101340008DA59EA50197F1F79EA78DA78FA598A9BA
:10135000019798AB8FA78FA598A9009769F714C03C
:1013600069A97AA98BA99CA90E942016DC01CB014E
:1013700098AB8FA78FA598A99CA78BA78BA59CA599
:101380000197F1F79CA78BA7A8E2B0E0E8E2F0E0B4
:1013900080818E7F8C93A8E2B0E0E8E2F0E080816B
:1013A0008D7F8C93E8E2F0E080E38083A8E2B0E0F8
:1013B000E8E2F0E0808184608C9380E090E0A0EA35
:1013C000B0E48FA398A7A9A7BAA76FA178A589A50C
:1013D0009AA52DEC3CEC4CE255E40E94F617DC019A
:1013E000CB018BA39CA3ADA3BEA36BA17CA18DA1BC
:1013F0009EA120E030E040E85FE30E94FC198823D2
:101400002CF481E090E09AA389A33FC06BA17CA15A
:101410008DA19EA120E03FEF4FE757E40E949C1969
:1014200018164CF56FA178A589A59AA520E030E0A3
:1014300040E251E40E94F617DC01CB01BC01CD0172
:101440000E942016DC01CB019AA389A30FC084E17E
:1014500091E098A38F8F8F8D98A10197F1F798A3B2
:101460008F8F89A19AA101979AA389A389A19AA193
:10147000009769F714C06BA17CA18DA19EA10E9469
:101480002016DC01CB019AA389A389A19AA19E8F82
:101490008D8F8D8D9E8D0197F1F79E8F8D8FA8E298
:1014A000B0E0E8E2F0E080818B7F8C9380E090E018
:1014B000A0E8BFE3898F9A8FAB8FBC8F698D7A8D3F
:1014C0008B8D9C8D2DEC3CEC4CE255E40E94F61784
:1014D000DC01CB018D8B9E8BAF8BB88F6D897E89A4
:1014E0008F89988D20E030E040E85FE30E94FC198E
:1014F00088232CF481E090E09C8B8B8B3FC06D891E
:101500007E898F89988D20E03FEF4FE757E40E9456
:101510009C1918164CF5698D7A8D8B8D9C8D20E069
:1015200030E040E251E40E94F617DC01CB01BC013F
:10153000CD010E942016DC01CB019C8B8B8B0FC050
:1015400084E191E09A8B898B89899A890197F1F7D7
:101550009A8B898B8B899C8901979C8B8B8B8B8930
:101560009C89009769F714C06D897E898F89988D51
:101570000E942016DC01CB019C8B8B8B8B899C8974
:10158000988B8F878F8598890197F1F7988B8F8734
:10159000A8E2B0E0E8E2F0E080818E7F8C93A8E2E0
:1015A000B0E0E8E2F0E080818D7F8C93E8E2F0E04B
:1015B00080E28083A8E2B0E0E8E2F0E0808184602D
:1015C0008C9380E090E0A0EAB0E48B879C87AD87A5
:1015D000BE876B857C858D859E852DEC3CEC4CE231
:1015E00055E40E94F617DC01CB018F839887A98709
:1015F000BA876F81788589859A8520E030E040E858
:101600005FE30E94FC1988232CF481E090E09E8324
:101610008D833FC06F81788589859A8520E03FEF73
:101620004FE757E40E949C1918164CF56B857C8592
:101630008D859E8520E030E040E251E40E94F6175F
:10164000DC01CB01BC01CD010E942016DC01CB01E5
:101650009E838D830FC084E191E09C838B838B817B
:101660009C810197F1F79C838B838D819E810197EB
:101670009E838D838D819E81009769F714C06F8151
:10168000788589859A850E942016DC01CB019E838E
:101690008D838D819E819A83898389819A81019727
:1016A000F1F79A838983A8E2B0E0E8E2F0E0808174
:1016B0008B7F8C93C059DF4F0FB6F894DEBF0FBEFF
:1016C000CDBFCF91DF911F910F910895DF93CF93FD
:1016D000CDB7DEB7A7E2B0E0E7E2F0E08081876F48
:1016E0008C93A8E2B0E0E8E2F0E0808180788C930F
:1016F000CF91DF910895DF93CF93CDB7DEB72E97CB
:101700000FB6F894DEBF0FBECDBF0E94660B0E94DD
:10171000670680E090E0A0E8BFE38B879C87AD87F9
:10172000BE876B857C858D859E852DEC3CEC4CE2DF
:1017300055E40E94F617DC01CB018F839887A987B7
:10174000BA876F81788589859A8520E030E040E806
:101750005FE30E94FC1988232CF481E090E09E83D3
:101760008D833FC06F81788589859A8520E03FEF22
:101770004FE757E40E949C1918164CF56B857C8541
:101780008D859E8520E030E040E251E40E94F6170E
:10179000DC01CB01BC01CD010E942016DC01CB0194
:1017A0009E838D830FC084E191E09C838B838B812A
:1017B0009C810197F1F79C838B838D819E8101979A
:1017C0009E838D838D819E81009769F714C06F8100
:1017D000788589859A850E942016DC01CB019E833D
:1017E0008D838D819E819A83898389819A810197D6
:1017F000F1F79A83898388E20E94130C81E00E94AA
:10180000130C86E00E94130C8EE00E94130C80E8FB
:101810000E94130C2E960FB6F894DEBF0FBECDBFFC
:10182000CF91DF910895DF93CF93CDB7DEB76E9759
:101830000FB6F894DEBF0FBECDBF8E8F8E8D8D8F0D
:101840008D8D807F8D8FA8E2B0E0E8E2F0E08081AE
:101850008F708C93A8E2B0E0E8E2F0E090818D8D8B
:10186000892B8C93A8E2B0E0E8E2F0E080818E7FE3
:101870008C93A8E2B0E0E8E2F0E080818D7F8C9369
:10188000A8E2B0E0E8E2F0E0808184608C9380E040
:1018900090E0A0EAB0E4898F9A8FAB8FBC8F698DFE
:1018A0007A8D8B8D9C8D2DEC3CEC4CE255E40E94A6
:1018B000F617DC01CB018D8B9E8BAF8BB88F6D89BA
:1018C0007E898F89988D20E030E040E85FE30E94B8
:1018D000FC1988232CF481E090E09C8B8B8B3FC01B
:1018E0006D897E898F89988D20E03FEF4FE757E41F
:1018F0000E949C1918164CF5698D7A8D8B8D9C8DE4
:1019000020E030E040E251E40E94F617DC01CB0118
:10191000BC01CD010E942016DC01CB019C8B8B8B7E
:101920000FC084E191E09A8B898B89899A8901970C
:10193000F1F79A8B898B8B899C8901979C8B8B8B78
:101940008B899C89009769F714C06D897E898F897E
:10195000988D0E942016DC01CB019C8B8B8B8B8990
:101960009C89988B8F878F8598890197F1F7988B41
:101970008F87A8E2B0E0E8E2F0E080818B7F8C9373
:101980008E8D8F708E8F8E8D8295807F8E8FA8E248
:10199000B0E0E8E2F0E080818F708C93A8E2B0E0E4
:1019A000E8E2F0E090818E8D892B8C93A8E2B0E084
:1019B000E8E2F0E080818E7F8C93A8E2B0E0E8E27C
:1019C000F0E080818D7F8C93A8E2B0E0E8E2F0E067
:1019D000808184608C9380E090E0A0EAB0E48B8703
:1019E0009C87AD87BE876B857C858D859E852DEC1C
:1019F0003CEC4CE255E40E94F617DC01CB018F83EE
:101A00009887A987BA876F81788589859A8520E02C
:101A100030E040E85FE30E94FC1988232CF481E069
:101A200090E09E838D833FC06F81788589859A85FC
:101A300020E03FEF4FE757E40E949C1918164CF541
:101A40006B857C858D859E8520E030E040E251E409
:101A50000E94F617DC01CB01BC01CD010E942016CB
:101A6000DC01CB019E838D830FC084E191E09C83D8
:101A70008B838B819C810197F1F79C838B838D8174
:101A80009E8101979E838D838D819E81009769F74A
:101A900014C06F81788589859A850E942016DC01A3
:101AA000CB019E838D838D819E819A8389838981D9
:101AB0009A810197F1F79A838983A8E2B0E0E8E27E
:101AC000F0E080818B7F8C936E960FB6F894DEBF2A
:101AD0000FBECDBFCF91DF910895DF93CF93CDB7E8
:101AE000DEB76E970FB6F894DEBF0FBECDBF8E8FF8
:101AF0008E8D8D8F8D8D807F8D8FA8E2B0E0E8E296
:101B0000F0E080818F708C93A8E2B0E0E8E2F0E032
:101B100090818D8D892B8C93A8E2B0E0E8E2F0E013
:101B2000808181608C93A8E2B0E0E8E2F0E08081FF
:101B30008D7F8C93A8E2B0E0E8E2F0E080818460E1
:101B40008C9380E090E0A0EAB0E4898F9A8FAB8F0D
:101B5000BC8F698D7A8D8B8D9C8D2DEC3CEC4CE28D
:101B600055E40E94F617DC01CB018D8B9E8BAF8B69
:101B7000B88F6D897E898F89988D20E030E040E8AC
:101B80005FE30E94FC1988232CF481E090E09C8B99
:101B90008B8B3FC06D897E898F89988D20E03FEFC8
:101BA0004FE757E40E949C1918164CF5698D7A8D01
:101BB0008B8D9C8D20E030E040E251E40E94F617CE
:101BC000DC01CB01BC01CD010E942016DC01CB0160
:101BD0009C8B8B8B0FC084E191E09A8B898B8989D8
:101BE0009A890197F1F79A8B898B8B899C89019748
:101BF0009C8B8B8B8B899C89009769F714C06D89AE
:101C00007E898F89988D0E942016DC01CB019C8BE8
:101C10008B8B8B899C89988B8F878F85988901976F
:101C2000F1F7988B8F87A8E2B0E0E8E2F0E08081DE
:101C30008B7F8C938E8D8F708E8F8E8D8295807F13
:101C40008E8FA8E2B0E0E8E2F0E080818F708C93A4
:101C5000A8E2B0E0E8E2F0E090818E8D892B8C93D1
:101C6000A8E2B0E0E8E2F0E0808181608C93A8E235
:101C7000B0E0E8E2F0E080818D7F8C93A8E2B0E0F4
:101C8000E8E2F0E0808184608C9380E090E0A0EA5C
:101C9000B0E48B879C87AD87BE876B857C858D85FF
:101CA0009E852DEC3CEC4CE255E40E94F617DC01DD
:101CB000CB018F839887A987BA876F8178858985BB
:101CC0009A8520E030E040E85FE30E94FC19882319
:101CD0002CF481E090E09E838D833FC06F817885F6
:101CE00089859A8520E03FEF4FE757E40E949C19D1
:101CF00018164CF56B857C858D859E8520E030E03F
:101D000040E251E40E94F617DC01CB01BC01CD0199
:101D10000E942016DC01CB019E838D830FC084E1DD
:101D200091E09C838B838B819C810197F1F79C834D
:101D30008B838D819E8101979E838D838D819E8172
:101D4000009769F714C06F81788589859A850E940C
:101D50002016DC01CB019E838D838D819E819A8329
:101D6000898389819A810197F1F79A838983A8E20F
:101D7000B0E0E8E2F0E080818B7F8C936E960FB646
:101D8000F894DEBF0FBECDBFCF91DF910895DF93F2
:101D9000CF93CDB7DEB780E80E94130CCF91DF91CF
:101DA0000895DF93CF930F920F92CDB7DEB79A834A
:101DB00089830AC0E981FA8180810E946D0D898141
:101DC0009A8101969A838983E981FA8180818823A7
:101DD00089F70F900F90CF91DF910895DF93CF9304
:101DE00000D00F92CDB7DEB789836A838981282F0F
:101DF00030E03C832B838B819C8182309105D9F02C
:101E00002B813C812330310534F48B819C818130DE
:101E1000910561F01EC02B813C812330310581F09A
:101E20008B819C818430910581F013C08A81815817
:101E30000E94130C0EC08A8181540E94130C09C0A9
:101E40008A818D560E94130C04C08A818D520E9493
:101E5000130C0F900F900F900F90CF91DF9108957A
:101E6000DF93CF9300D000D0CDB7DEB789836A83EC
:101E70005C834B833E832D831092E2038981882308
:101E800019F08A81882319F40E94C70E04C0898141
:101E90006A810E94EE0E8D819E818530910521F030
:101EA0008091E2038130B1F48B819C8120E137E2A3
:101EB000B9010E94721DCB01C0969093510480938A
:101EC000500480915004909151040E946D0D81E066
:101ED0008093E2038D819E818430910521F0809171
:101EE000E203813019F58B819C8128EE33E0B90142
:101EF0000E94721DCB019093B7048093B604809129
:101F0000B6049091B7042AE030E0B9010E94721D36
:101F1000C09690934805809347058091470590911E
:101F200048050E946D0D81E08093E2038D819E81C2
:101F30008330910521F08091E203813019F58B8186
:101F40009C8124E630E0B9010E94721DCB01909380
:101F5000B7048093B6048091B6049091B7042AE048
:101F600030E0B9010E94721DC0969093E004809306
:101F7000DF048091DF049091E0040E946D0D81E008
:101F80008093E2038D819E818230910521F08091C2
:101F9000E203813019F58B819C812AE030E0B901A0
:101FA0000E94721DCB019093B7048093B604809178
:101FB000B6049091B7042AE030E0B9010E94721D86
:101FC000C0969093BE048093BD048091BD0490910F
:101FD000BE040E946D0D81E08093E2038D819E819D
:101FE0008130910521F08091E203813091F48B8161
:101FF0009C812AE030E0B9010E94721DC096909346
:1020000046058093450580914505909146050E94BF
:102010006D0D8D819E81863091051CF085E40E94B6
:102020006D0D26960FB6F894DEBF0FBECDBFCF91D3
:10203000DF910895DF93CF93CDB7DEB70E942310D1
:10204000CF91DF910895DF93CF93CDB7DEB7E1E273
:10205000F0E08FEF8083E2E2F0E01082EAE0F1E06E
:1020600088E38083EBE0F1E088E38083EDE2F0E059
:1020700088E08083EEE2F0E088E080830E944310F5
:10208000CF91DF910895DF93CF93CDB7DEB7E1E233
:10209000F1E01082E5E2F1E08FEF8083E5E2F1E02C
:1020A0001082E9E2F1E01082EBE2F1E01082EAE274
:1020B000F1E08FEF8083EDE2F1E01082ECE2F1E0FD
:1020C0008FEF8083E0E2F1E089EA8083E1E2F1E0F2
:1020D0008BE08083CF91DF910895DF93CF930F92B0
:1020E0000F92CDB7DEB789836A83E8E2F1E0898198
:1020F0008083EAE2F1E08A818083E8E9F0E0898187
:1021000080830F900F90CF91DF910895DF93CF934D
:10211000CDB7DEB7A2E2B0E0E2E2F0E08081807FFE
:1021200086608C93CF91DF910895DF93CF93CDB7E5
:10213000DEB7A2E2B0E0E2E2F0E08081807F896079
:102140008C93CF91DF910895DF93CF93CDB7DEB716
:10215000A2E2B0E0E2E2F0E08081807F85608C93D3
:10216000CF91DF910895DF93CF93CDB7DEB7A2E291
:10217000B0E0E2E2F0E08081807F8A608C93CF91D2
:10218000DF910895DF93CF93CDB7DEB7A2E2B0E041
:10219000E2E2F0E08081807F8C93CF91DF9108951F
:1021A000DF93CF93CDB7DEB7A2E2B0E0E2E2F0E09A
:1021B00080818F7C80628C93CF91DF910895DF9333
:1021C000CF93CDB7DEB7A2E2B0E0E2E2F0E08081EB
:1021D0008F7C80618C93CF91DF910895DF93CF93B3
:1021E000CDB7DEB7A2E2B0E0E2E2F0E080818F732B
:1021F00080688C93CF91DF910895DF93CF93CDB713
:10220000DEB7A2E2B0E0E2E2F0E080818F738064AA
:102210008C93CF91DF910895DF93CF93CDB7DEB745
:10222000A2E2B0E0E2E2F0E080818F7C8C93CF917B
:10223000DF910895DF93CF93CDB7DEB7A2E2B0E090
:10224000E2E2F0E080818F738C93CF91DF9108956B
:10225000DF93CF93CDB7DEB7A7E2B0E0E7E2F0E0DF
:102260008081876F8C93A8E2B0E0E8E2F0E08081A3
:1022700080788C93CF91DF910895DF93CF93CDB782
:10228000DEB7E0E3F0E01082E1E3F0E01082E7E0A7
:10229000F1E01082E8E0F1E01082CF91DF91089543
:1022A000DF93CF93CDB7DEB7EAE7F0E01082EBE73C
:1022B000F0E01082ECE7F0E080E28083E0E5F0E01F
:1022C00080E88083EAE7F0E086E88083CF91DF91C1
:1022D0000895DF93CF930F920F92CDB7DEB78A8325
:1022E0008A81883020F0EBE7F0E088E080838A8103
:1022F00087708A83ECE7F0E08A8180628083AAE7B6
:10230000B0E0EAE7F0E0808180648C93EAE7F0E0F7
:102310008081882F90E0807190700097B9F3E9E791
:10232000F0E080818983AAE7B0E0EAE7F0E080810D
:1023300080618C93EBE7F0E0108289810F900F9021
:10234000CF91DF910895DF93CF9300D0CDB7DEB763
:1023500089836A834B838B810E946911809349052D
:1023600081E090E00E94130C81E090E061E070E079
:102370000E94EE0E80914905882F90E00E94D10EB8
:102380000F900F900F90CF91DF910895DF93CF932F
:102390000F920F92CDB7DEB78A8319828A818F7030
:1023A0008A83E2E2F0E0808189838981807F89836A
:1023B00099818A81892B8983E2E2F0E08981808397
:1023C0000F900F90CF91DF910895DF93CF93CDB70A
:1023D000DEB786E00E94C611CF91DF910895DF93AA
:1023E000CF93CDB7DEB780E00E94C611CF91DF91C9
:1023F0000895DF93CF93CDB7DEB785E00E94C61175
:10240000CF91DF910895DF93CF93CDB7DEB78AE008
:102410000E94C611CF91DF910895DF93CF9300D032
:102420000F92CDB7DEB783E00E9469118093E3037A
:1024300082E00E9469118093E40381E00E946911A7
:102440008093E5031092E20381E061E043E00E94A3
:10245000A31181E065E042E00E94A31181E069E000
:1024600041E00E94A3118091E403893260F081E091
:102470008093E2030E94E5118AEF6AEF0E946D10DB
:102480001A82198251C08091E303883280F48091CE
:10249000E203882361F481E08093E2030E94E51166
:1024A00080ED60E50E946D101A8219823DC0809116
:1024B000E503883280F48091E203882361F481E0AF
:1024C0008093E2030E94E51180E560ED0E946D10AB
:1024D0001A82198229C08091E403883288F480919D
:1024E000E303883268F48091E503883248F40E945F
:1024F000E5118AEF6AEF0E946D101A82198214C0EA
:102500008091E403893278F08091E303893220F4EA
:102510008091E503893238F00E94EF1181E090E06C
:102520009A83898301C004C089819A819C838B83AB
:102530008B819C810F900F900F900F90CF91DF9126
:1025400008951F920F920FB60F9211248F939F93AD
:10255000DF93CF93CDB7DEB78091E6039091E70389
:1025600001969093E7038093E603CF91DF919F91CB
:102570008F910F900FBE0F901F9018951F920F9282
:102580000FB60F9211248F939F93DF93CF93CDB704
:10259000DEB78091E8039091E90301969093E903F7
:1025A0008093E803CF91DF919F918F910F900FBEA1
:1025B0000F901F901895DF93CF93CDB7DEB7ADE2A4
:1025C000B0E0EDE2F0E080818F7E8C93AEE2B0E08F
:1025D000EEE2F0E0808180618C93CF91DF910895ED
:1025E000DF93CF93CDB7DEB7ADE2B0E0EDE2F0E040
:1025F00080818F7D8C93AEE2B0E0EEE2F0E08081EE
:1026000080628C93CF91DF910895DF93CF93CDB704
:10261000DEB7F894AAE6B0E0EAE6F0E080818260F6
:102620008C93ADE3B0E0EDE3F0E0808180618C93CA
:102630007894CF91DF910895DF93CF93CDB7DEB734
:10264000F894AAE6B0E0EAE6F0E0808188608C9336
:10265000ADE3B0E0EDE3F0E0808180628C937894AC
:10266000CF91DF910895DF93CF9300D000D0CDB705
:10267000DEB79C838B837E836D831092E703109279
:10268000E6038B819C81AA2797FDA095BA2FBC01F8
:10269000CD010E942C1ADC01CB01BC01CD012BE73E
:1026A00034E14EEA50E40E94F018DC01CB01BC0199
:1026B000CD010E948A1ADC01CB019A838983209183
:1026C000E6033091E70389819A81281739075CF086
:1026D0000E94EF1126960FB6F894DEBF0FBECDBF55
:1026E000CF91DF9108958D819E81009719F00E940E
:1026F0000D12E5CF0E94E511E2CFDF93CF93CDB766
:10270000DEB72C970FB6F894DEBF0FBECDBF9A8709
:1027100089871092E9031092E8038091E803909171
:10272000E9039093E7038093E60380E090E0A0E064
:10273000B0E08D839E83AF83B88719821A821B8293
:102740001C8289859A85CC01A0E0B0E0BC01CD0156
:102750000E94DE1ADC01CB01BC01CD0128E431EE80
:1027600042E850E40E94F018DC01CB018D839E8387
:10277000AF83B8876D817E818F8198850E942016F6
:10278000DC01CB01CC01A0E0B0E089839A83AB836C
:10279000BC838091E6039091E7039C01442737FDB9
:1027A0004095542F1C8689819A81AB81BC81281762
:1027B00039074A075B0710F081E08C878091E803B6
:1027C0009091E9039C01442737FD4095542F1B86C7
:1027D00089819A81AB81BC81281739074A075B0739
:1027E00010F091E09B878C859B85892B882389F24B
:1027F0000E94EF112C960FB6F894DEBF0FBECDBF2E
:10280000CF91DF910895DF93CF9300D000D0CDB763
:10281000DEB79A83898389819A819E838D838D8196
:102820009E818430910509F45BC08D819E81853045
:10283000910584F48D819E818230910569F18D81AD
:102840009E81833091058CF58D819E81813091052B
:10285000D1F06FC18D819E818630910509F494C0BD
:102860008D819E81863091050CF45BC08D819E81A7
:102870008730910509F4C1C08D819E818830910512
:1028800009F406C156C18AEF90E061E070E00E9451
:1028900033131C821B8251C18CE494E061E070E030
:1028A0000E9433131C821B8248C18CE697E061E0D2
:1028B00070E00E9433130E9403128AE590E00E94A8
:1028C0007D1381E490E060E070E00E9433130E9489
:1028D00003128CE390E00E947D131C821B822DC1A9
:1028E0008CE697E061E070E00E9433130E940312CF
:1028F0008AE590E00E947D1381E490E060E070E062
:102900000E9433130E9403128CE390E00E947D1317
:1029100082E593E061E070E00E9433131C821B8229
:102920000CC18CE697E061E070E00E9433130E94D6
:1029300003128AE590E00E947D1381E490E060E05C
:1029400070E00E9433130E9403128CE390E00E9417
:102950007D138EEA96E061E070E00E9433130E94DE
:10296000F9118AE590E00E947D1383EF92E061E027
:1029700070E00E9433130E94F9118AE590E00E94F2
:102980007D131C821B82D9C08CE697E061E070E069
:102990000E9433130E9403128AE590E00E947D1387
:1029A00081E490E060E070E00E9433130E94031223
:1029B0008CE390E00E947D138EEA96E061E070E087
:1029C0000E9433130E94F9118AE590E00E947D1362
:1029D00083EF92E061E070E00E9433130E94F911EE
:1029E0008AE590E00E947D1384ED93E061E070E061
:1029F0000E9433131C821B82A0C08CE697E061E02A
:102A000070E00E9433130E9403128AE590E00E9456
:102A10007D1381E490E060E070E00E9433130E9437
:102A200003128CE390E00E947D138EEA96E061E051
:102A300070E00E9433130E94F9118AE590E00E9431
:102A40007D1383EF92E061E070E00E9433130E94F7
:102A5000F9118AE590E00E947D1384EF96E061E031
:102A600070E00E9433130E9403128AE590E00E94F6
:102A70007D1381E490E060E070E00E9433130E94D7
:102A800003128CE390E00E947D131C821B8255C0D0
:102A90008CE697E061E070E00E9433130E9403121D
:102AA0008AE590E00E947D1381E490E060E070E0B0
:102AB0000E9433130E9403128CE390E00E947D1366
:102AC0008EEA96E061E070E00E9433130E94F911F3
:102AD0008AE590E00E947D1383EF92E061E070E070
:102AE0000E9433130E94F9118AE590E00E947D1341
:102AF00084EF96E061E070E00E9433130E940312BD
:102B00008AE590E00E947D1381E490E060E070E04F
:102B10000E9433130E9403128CE390E00E947D1305
:102B200082E593E061E070E00E9433131C821B8217
:102B300004C081E090E09C838B838B819C812696EE
:102B40000FB6F894DEBF0FBECDBFCF91DF910895D1
:102B5000DF93CF9300D000D0CDB7DEB79A838983BF
:102B600089819A819C838B838B819C81853091059F
:102B70005CF48B819C8183309105E4F48B819C8192
:102B800081309105DCF00BC08B819C8187309105F1
:102B900034F08B819C818930910584F40BC00E94B4
:102BA000031284EB90E00E947D130E940D120097A7
:102BB00029F4FBCF0E940D120097E1F389819A81DD
:102BC0009E838D838D819E818530910584F18D81D9
:102BD0009E818730910534F08D819E8189309105E9
:102BE00034F513C00E9403128AE590E00E947D1321
:102BF00083EF92E061E070E00E9433130E94F911CC
:102C00008AE590E00E947D1312C00E9403128AE5BB
:102C100090E00E947D1383E993E061E070E00E9400
:102C200033130E94F9118AE590E00E947D132696E5
:102C30000FB6F894DEBF0FBECDBFCF91DF910895E0
:102C4000EF92FF920F931F937B018C0120E030E005
:102C500040E05FE40E94CC1988238CF0C801B701E2
:102C600020E030E040E05FE40E9498170E948A1A5A
:102C70009B01AC01205030404040504806C0C80184
:102C8000B7010E948A1A9B01AC01B901CA011F91C8
:102C90000F91FF90EF900895A0E0B0E0E2E5F6E13B
:102CA0000C94861DDC012B01FA019C91923008F4F2
:102CB00039C1EB018881823008F433C1943069F462
:102CC000843009F02FC111969C9111978981981732
:102CD00009F428C1A6EDB2E025C1843009F421C170
:102CE0008230A9F4923009F01DC19A01AD0188E04B
:102CF000EA010990AE01E90109929E018150C1F7F4
:102D0000E201898111969C918923818308C19230C7
:102D100009F407C112962D903C901397EB018A811C
:102D20009B811496AD90BD90CD90DC901797EC8070
:102D3000FD800E811F819101281B390BB90137FFDE
:102D400004C066277727621B730B603271050CF095
:102D500061C0121613066CF537014801062E04C037
:102D600096948794779467940A94D2F721E030E0A0
:102D700040E050E004C0220F331F441F551F6A95E6
:102D8000D2F721503040404050402E213F21402377
:102D90005123211531054105510521F021E030E095
:102DA00040E050E079018A01E628F728082919292E
:102DB0003CC0232BD1F1260E371E35014601062ECD
:102DC00004C096948794779467940A94D2F721E08C
:102DD00030E040E050E004C0220F331F441F551F75
:102DE0006A95D2F721503040404050402A213B2183
:102DF0004C215D21211531054105510521F021E0CE
:102E000030E040E050E059016A01A628B728C82800
:102E1000D9280BC0821593052CF01C01AA24BB24D1
:102E2000650103C0EE24FF24870111969C91D20115
:102E300011968C91981709F445C0992339F0A8018F
:102E400097012A193B094C095D0906C0A6019501A5
:102E50002E193F09400B510B57FD08C011823382D8
:102E6000228224833583468357831DC081E081837A
:102E70003382228288279927DC01821B930BA40BC3
:102E8000B50B84839583A683B7830DC0220F331FB0
:102E9000441F551F24833583468357838281938142
:102EA0000197938382832481358146815781DA019A
:102EB000C9010197A109B1098F5F9F4FAF4FBF4370
:102EC00028F30BC0918333822282EA0CFB1C0C1D79
:102ED0001D1DE482F5820683178383E080832481AD
:102EE00035814681578157FF1AC0C901AA2797FD2E
:102EF000A095BA2F81709070A070B07056954795CC
:102F000037952795822B932BA42BB52B8483958300
:102F1000A683B78382819381019693838283DF01A5
:102F200001C0D201CD01CDB7DEB7E2E10C94A21D04
:102F3000A0E2B0E0EEE9F7E10C94921D69837A8398
:102F40008B839C832D833E834F835887E9E0EE2E4D
:102F5000F12CEC0EFD1ECE010196B7010E947B1CE8
:102F60008E010F5E1F4FCE010596B8010E947B1C9B
:102F70008A8991E089278A8BC701B801AE01475E33
:102F80005F4F0E944C160E94A61BA096E6E00C9490
:102F9000AE1DA0E2B0E0EFECF7E10C94921D698366
:102FA0007A838B839C832D833E834F835887F9E0FC
:102FB000EF2EF12CEC0EFD1ECE010196B7010E9402
:102FC0007B1C8E010F5E1F4FCE010596B8010E943B
:102FD0007B1CC701B801AE01475E5F4F0E944C16D3
:102FE0000E94A61BA096E6E00C94AE1DA0E2B0E005
:102FF000ECEFF7E10C94861D69837A838B839C83C5
:103000002D833E834F835887CE010196BE01675FB3
:103010007F4F0E947B1CCE010596BE016F5E7F4FE5
:103020000E947B1C9985923088F089898230C8F093
:10303000943019F4823051F404C0843029F4923071
:1030400081F486ED92E0C6C0923049F420E09A8582
:103050008A89981321E02A87CE010996BBC0823065
:1030600049F420E09A858A89981321E02A8BCE01C1
:103070004196B0C02D843E844F8458886D887E88E8
:103080008F88988CEE24FF248701AA24BB24650135
:1030900040E050E060E070E0E0E0F0E0C10181700D
:1030A0009070892BE9F0E60CF71C081D191D9A0198
:1030B000AB012A0D3B1D4C1D5D1D80E090E0A0E0A2
:1030C000B0E0E614F7040805190520F481E090E06B
:1030D000A0E0B0E0BA01A901480F591F6A1F7B1F89
:1030E000AA0CBB1CCC1CDD1C97FE08C081E090E044
:1030F000A0E0B0E0A82AB92ACA2ADB2A3196E03239
:10310000F10549F0660C771C881C991C569447946D
:1031100037942794C3CFFA85EA892B893C898B851C
:103120009C85280F391F2E5F3F4F17C0CA01817041
:103130009070892B61F016950795F794E79480E0DD
:1031400090E0A0E0B0E8E82AF92A0A2B1B2B76953C
:103150006795579547952F5F3F4F77FDE7CF0CC099
:10316000440F551F661F771F17FD4160EE0CFF1CB3
:10317000001F111F21503040403090E0590790E06F
:10318000690790E4790760F32B8F3C8FDB01CA015C
:103190008F779070A070B07080349105A105B10553
:1031A00061F447FD0AC0E114F1040105110529F09D
:1031B000405C5F4F6F4F7F4F40781A8EFE1711F0C3
:1031C00081E08A8F4D8F5E8F6F8F78A383E0898F28
:1031D000CE0149960E94A61BA096E2E10C94A21D86
:1031E000A8E1B0E0E6EFF8E10C948E1D69837A83E4
:1031F0008B839C832D833E834F835887B9E0EB2ECE
:10320000F12CEC0EFD1ECE010196B7010E947B1C35
:103210008E010F5E1F4FCE010596B8010E947B1CE8
:103220002985223008F47EC03989323010F4B80183
:103230007CC08A859A8989278A87243011F02230B8
:1032400031F4231709F06EC066ED72E06EC03430C1
:1032500039F41D861E861F86188A1C861B8604C0AC
:10326000323021F484E08987B7015FC02B853C852B
:103270008B899C89281B390B3C872B87ED84FE8426
:103280000F851889AD88BE88CF88D88CEA14FB04D6
:103290000C051D0540F4EE0CFF1C001F111F2150F2
:1032A00030403C872B8720E030E040E050E080E079
:1032B00090E0A0E0B0E460E070E0EA14FB040C05EC
:1032C0001D0540F0282B392B4A2B5B2BEA18FB08F5
:1032D0000C091D09B695A79597958795EE0CFF1CCF
:1032E000001F111F6F5F7F4F6F31710531F7DA01DA
:1032F000C9018F779070A070B07080349105A105DE
:10330000B10561F427FD0AC0E114F10401051105BE
:1033100029F0205C3F4F4F4F5F4F20782D873E872D
:103320004F87588BBE01675F7F4FCB010E94A61B62
:103330006896EAE00C94AA1DA8E1B0E0E2EAF9E19F
:103340000C94921D69837A838B839C832D833E83A7
:103350004F83588789E0E82EF12CEC0EFD1ECE013C
:103360000196B7010E947B1C8E010F5E1F4FCE019C
:103370000596B8010E947B1C8985823040F08989BE
:10338000823028F0C701B8010E94F31C01C08FEF02
:103390006896E6E00C94AE1DA8E1B0E0E2EDF9E13C
:1033A0000C94921D69837A838B839C832D833E8347
:1033B0004F83588789E0E82EF12CEC0EFD1ECE01DC
:1033C0000196B7010E947B1C8E010F5E1F4FCE013C
:1033D0000596B8010E947B1C8985823040F089895E
:1033E000823028F0C701B8010E94F31C01C08FEFA2
:1033F0006896E6E00C94AE1DA8E1B0E0E2E0FAE1E8
:103400000C94921D69837A838B839C832D833E83E6
:103410004F83588789E0E82EF12CEC0EFD1ECE017B
:103420000196B7010E947B1C8E010F5E1F4FCE01DB
:103430000596B8010E947B1C8985823040F08989FD
:10344000823028F0C701B8010E94F31C01C081E05E
:103450006896E6E00C94AE1DA8E0B0E0E2E3FAE185
:103460000C948F1D9B01AC0183E08983DA01C901B3
:103470008827B7FD83959927AA27BB27B82E211542
:1034800031054105510519F482E089833AC088234A
:10349000A9F0203080E0380780E0480780E858072E
:1034A00029F460E070E080E09FEC30C0EE24FF245F
:1034B0008701E21AF30A040B150B02C079018A0195
:1034C0008EE1C82ED12CDC82CB82ED82FE820F836E
:1034D0001887C801B7010E94571B019718161906D3
:1034E00084F4082E04C0EE0CFF1C001F111F0A9468
:1034F000D2F7ED82FE820F831887C81AD90ADC82C0
:10350000CB82BA82CE0101960E94A61B2896E9E0E2
:103510000C94AB1DACE0B0E0E0E9FAE10C94961D30
:1035200069837A838B839C83CE010196BE016B5F96
:103530007F4F0E947B1C8D81823061F1823050F17F
:10354000843021F48E81882351F12EC02F8138855B
:1035500037FD20C06E812F3131051CF06623F9F054
:1035600023C08EE190E0821B930B29853A854B8521
:103570005C8504C056954795379527958A95D2F76F
:103580006623B1F050954095309521953F4F4F4FB0
:103590005F4F0EC020E030E040E050E009C02FEF68
:1035A0003FEF4FEF5FE704C020E030E040E050E83D
:1035B000B901CA012C96E2E00C94B21DA8E0B0E07B
:1035C000E4EEFAE10C948E1D7B018C01611571050E
:1035D0008105910519F482E0898360C083E08983C5
:1035E0008EE1C82ED12CDC82CB82ED82FE820F834D
:1035F0001887C801B7010E94571BFC013197F7FFDC
:103600003BC0222733272E1B3F0B57016801022E98
:1036100004C0D694C794B794A7940A94D2F740E014
:1036200050E060E070E081E090E0A0E0B0E004C035
:10363000880F991FAA1FBB1F2A95D2F70197A109CE
:10364000B1098E219F21A023B1230097A105B105C7
:1036500021F041E050E060E070E04A295B296C29EC
:103660007D294D835E836F8378878EE190E08E1B8A
:103670009F0B9C838B8312C0309781F00E2E04C069
:10368000EE0CFF1C001F111F0A94D2F7ED82FE8280
:103690000F831887CE1ADF0ADC82CB821A82CE0112
:1036A00001960E94A61B2896EAE00C94AA1DEF92B0
:1036B000FF920F931F937B018C0180E0E81680E05E
:1036C000F80681E0080780E0180788F48FEFE81615
:1036D000F1040105110531F028F088E090E0A0E048
:1036E000B0E017C080E090E0A0E0B0E012C080E061
:1036F000E81680E0F80680E0080781E0180728F067
:1037000088E190E0A0E0B0E004C080E190E0A0E0BB
:10371000B0E020E230E040E050E0281B390B4A0BDB
:103720005B0B04C016950795F794E7948A95D2F73A
:10373000F701E252FD4F8081281B310941095109EF
:10374000C9011F910F91FF90EF900895DF92EF92C2
:10375000FF920F931F93FC01E480F580068117818F
:10376000D1808081823048F480E090E0A0E1B0E038
:10377000E82AF92A0A2B1B2BA5C0843009F49FC024
:10378000823021F4EE24FF24870105C0E114F10406
:103790000105110519F4E0E0F0E096C06281738143
:1037A0009FEF623879070CF05BC022E83FEF261BE1
:1037B000370B2A3131052CF020E030E040E050E0BA
:1037C0002AC0B801A701022E04C0769567955795C7
:1037D00047950A94D2F781E090E0A0E0B0E004C001
:1037E000880F991FAA1FBB1F2A95D2F70197A1091D
:1037F000B1098E219F21A023B1230097A105B10516
:1038000021F081E090E0A0E0B0E09A01AB01282B2C
:10381000392B4A2B5B2BDA01C9018F779070A0708E
:10382000B07080349105A105B10539F427FF09C0B6
:10383000205C3F4F4F4F5F4F04C0215C3F4F4F4FC5
:103840005F4FE0E0F0E02030A0E03A07A0E04A0758
:10385000A0E45A0710F0E1E0F0E079018A0127C006
:103860006038710564F5FB01E158FF4FD801C701CD
:103870008F779070A070B07080349105A105B1056C
:1038800039F4E7FE0DC080E490E0A0E0B0E004C0B1
:103890008FE390E0A0E0B0E0E80EF91E0A1F1B1FC6
:1038A00017FF05C016950795F794E794319687E0C2
:1038B00016950795F794E7948A95D1F705C0EE24FD
:1038C000FF248701EFEFF0E06E2F6795662767957D
:1038D000902F9F77D794DD24D7948E2F8695492FEC
:1038E000462B582F5D29B701CA011F910F91FF90F8
:1038F000EF90DF900895FC01DB014081518122812E
:10390000622F6F7770E0221F2227221F9381892F59
:10391000880F822B282F30E0991F9927991F119625
:103920009C93119721153105A9F5411551056105A4
:10393000710511F482E037C082E89FEF13969C93E3
:103940008E9312979A01AB0167E0220F331F441F39
:10395000551F6A95D1F783E08C930DC0220F331F5A
:10396000441F551F12968D919C91139701971396A2
:103970009C938E931297203080E0380780E04807B0
:1039800080E4580758F314962D933D934D935C9320
:10399000179708952F3F310579F4411551056105B9
:1039A000710519F484E08C93089564FF03C081E0ED
:1039B0008C9312C01C9210C02F57304013963C932A
:1039C0002E93129783E08C9387E0440F551F661F58
:1039D000771F8A95D1F7706414964D935D936D931C
:1039E0007C93179708951F93DC01FB019C91923003
:1039F00008F447C08081823008F443C0943051F409
:103A000011961C91843099F58181682F70E0611BBB
:103A100071093FC0843021F0923031F48230B9F125
:103A20008181882389F12DC011961C9111978230D4
:103A3000F1F081811817D9F412962D913C911397CA
:103A4000828193818217930794F028173907BCF07D
:103A500014968D919D910D90BC91A02D248135815E
:103A600046815781281739074A075B0718F4112345
:103A700041F00AC082179307A407B50740F4112349
:103A800019F061E070E005C06FEF7FEF02C060E009
:103A900070E0CB011F910895FC0188279927E894D5
:103AA00021912032E9F3293010F02E30C8F32B3267
:103AB00041F02D3239F4689404C00E946A1D820FCF
:103AC000911D219120532A30C0F31EF490958195C9
:103AD0009F4F08957AE0979F902D879F802D910D9D
:103AE00011240895AA1BBB1B51E107C0AA1FBB1FCD
:103AF000A617B70710F0A61BB70B881F991F5A957A
:103B0000A9F780959095BC01CD0108952F923F9221
:103B10004F925F926F927F928F929F92AF92BF92DD
:103B2000CF92DF92EF92FF920F931F93CF93DF9389
:103B3000CDB7DEB7CA1BDB0B0FB6F894DEBF0FBEE6
:103B4000CDBF19942A88398848885F846E847D8423
:103B50008C849B84AA84B984C884DF80EE80FD8035
:103B60000C811B81AA81B981CE0FD11D0FB6F894AB
:0E3B7000DEBF0FBECDBFED010895F894FFCF6C
:103B7E00414E44524F49445F46423500424F542015
:103B8E00464F525741524400424F542052455645DB
:103B9E00525345005370656564206368616E6765B6
:103BAE006400424F54205249474854205455524EB7
:103BBE0000424F542053544F500050554C4C4559D1
:103BCE002055500050554C4C455920444F574E00EF
:103BDE0050554C4C45592053544F50004355545456
:103BEE004552204F4E00574F524B494E47004355BA
:103BFE0054544552204F46460052657475726E00FD
:103C0E0054726F756768206E6F2E207265636569DA
:103C1E00766564004D6F6465203A2031004C656115
:103C2E0076696E67204D6F6465203A2031005265CB
:103C3E007475726E20746F205374617274004465D3
:103C4E006661756C74000000000000000000000149
:103C5E00020203030303040404040404040405051C
:103C6E0005050505050505050505050505050606F4
:103C7E0006060606060606060606060606060606D6
:103C8E0006060606060606060606060606060707C4
:103C9E0007070707070707070707070707070707A6
:103CAE000707070707070707070707070707070796
:103CBE000707070707070707070707070707070786
:103CCE000707070707070707070707070707080874
:103CDE000808080808080808080808080808080856
:103CEE000808080808080808080808080808080846
:103CFE000808080808080808080808080808080836
:103D0E000808080808080808080808080808080825
:103D1E000808080808080808080808080808080815
:103D2E000808080808080808080808080808080805
:103D3E0008080808080808080808080808080808F5
:0E3D4E000808080808080808080808080808F7
:00000001FF
